{
  "_format": "hh-sol-artifact-1",
  "contractName": "OnchainTodo",
  "sourceName": "contracts/OnchainTodo.sol",
  "abi": [
    {
      "anonymous": false,
      "inputs": [
        {
          "indexed": true,
          "internalType": "address",
          "name": "user",
          "type": "address"
        },
        {
          "indexed": false,
          "internalType": "uint256",
          "name": "id",
          "type": "uint256"
        },
        {
          "indexed": false,
          "internalType": "string",
          "name": "content",
          "type": "string"
        },
        {
          "indexed": false,
          "internalType": "uint256",
          "name": "timestamp",
          "type": "uint256"
        }
      ],
      "name": "TaskCreated",
      "type": "event"
    },
    {
      "anonymous": false,
      "inputs": [
        {
          "indexed": true,
          "internalType": "address",
          "name": "user",
          "type": "address"
        },
        {
          "indexed": false,
          "internalType": "uint256",
          "name": "id",
          "type": "uint256"
        },
        {
          "indexed": false,
          "internalType": "uint256",
          "name": "timestamp",
          "type": "uint256"
        }
      ],
      "name": "TaskDeleted",
      "type": "event"
    },
    {
      "anonymous": false,
      "inputs": [
        {
          "indexed": true,
          "internalType": "address",
          "name": "user",
          "type": "address"
        },
        {
          "indexed": false,
          "internalType": "uint256",
          "name": "id",
          "type": "uint256"
        },
        {
          "indexed": false,
          "internalType": "bool",
          "name": "completed",
          "type": "bool"
        },
        {
          "indexed": false,
          "internalType": "uint256",
          "name": "timestamp",
          "type": "uint256"
        }
      ],
      "name": "TaskUpdated",
      "type": "event"
    },
    {
      "inputs": [
        {
          "internalType": "string",
          "name": "content",
          "type": "string"
        }
      ],
      "name": "createTask",
      "outputs": [],
      "stateMutability": "nonpayable",
      "type": "function"
    },
    {
      "inputs": [
        {
          "internalType": "uint256",
          "name": "id",
          "type": "uint256"
        }
      ],
      "name": "deleteTask",
      "outputs": [],
      "stateMutability": "nonpayable",
      "type": "function"
    },
    {
      "inputs": [],
      "name": "getMyTasks",
      "outputs": [
        {
          "components": [
            {
              "internalType": "uint256",
              "name": "id",
              "type": "uint256"
            },
            {
              "internalType": "string",
              "name": "content",
              "type": "string"
            },
            {
              "internalType": "bool",
              "name": "completed",
              "type": "bool"
            },
            {
              "internalType": "uint256",
              "name": "createdAt",
              "type": "uint256"
            },
            {
              "internalType": "uint256",
              "name": "updatedAt",
              "type": "uint256"
            }
          ],
          "internalType": "struct OnchainTodo.Task[]",
          "name": "",
          "type": "tuple[]"
        }
      ],
      "stateMutability": "view",
      "type": "function"
    },
    {
      "inputs": [
        {
          "internalType": "uint256",
          "name": "offset",
          "type": "uint256"
        },
        {
          "internalType": "uint256",
          "name": "limit",
          "type": "uint256"
        }
      ],
      "name": "getMyTasks",
      "outputs": [
        {
          "components": [
            {
              "internalType": "uint256",
              "name": "id",
              "type": "uint256"
            },
            {
              "internalType": "string",
              "name": "content",
              "type": "string"
            },
            {
              "internalType": "bool",
              "name": "completed",
              "type": "bool"
            },
            {
              "internalType": "uint256",
              "name": "createdAt",
              "type": "uint256"
            },
            {
              "internalType": "uint256",
              "name": "updatedAt",
              "type": "uint256"
            }
          ],
          "internalType": "struct OnchainTodo.Task[]",
          "name": "out",
          "type": "tuple[]"
        }
      ],
      "stateMutability": "view",
      "type": "function"
    },
    {
      "inputs": [],
      "name": "getTaskCount",
      "outputs": [
        {
          "internalType": "uint256",
          "name": "",
          "type": "uint256"
        }
      ],
      "stateMutability": "view",
      "type": "function"
    },
    {
      "inputs": [
        {
          "internalType": "uint256",
          "name": "id",
          "type": "uint256"
        }
      ],
      "name": "toggleTask",
      "outputs": [],
      "stateMutability": "nonpayable",
      "type": "function"
    }
  ],
  "bytecode": "0x608060405234801561001057600080fd5b506116ae806100206000396000f3fe608060405234801561001057600080fd5b50600436106100625760003560e01c8063111002aa14610067578063560f319214610083578063613137a41461009f5780636e13f818146100bb578063c17a340e146100d9578063c5d8065d146100f7575b600080fd5b610081600480360381019061007c9190610c2e565b610127565b005b61009d60048036038101906100989190610cb1565b61038a565b005b6100b960048036038101906100b49190610cb1565b6105b8565b005b6100c3610704565b6040516100d09190610ed0565b60405180910390f35b6100e161086a565b6040516100ee9190610f01565b60405180910390f35b610111600480360381019061010c9190610f1c565b6108b3565b60405161011e9190610ed0565b60405180910390f35b6000828290501161016d576040517f08c379a000000000000000000000000000000000000000000000000000000000815260040161016490610fb9565b60405180910390fd5b6000600160003373ffffffffffffffffffffffffffffffffffffffff1673ffffffffffffffffffffffffffffffffffffffff168152602001908152602001600020549050600160003373ffffffffffffffffffffffffffffffffffffffff1673ffffffffffffffffffffffffffffffffffffffff168152602001908152602001600020600081548092919061020190611008565b91905055506000803373ffffffffffffffffffffffffffffffffffffffff1673ffffffffffffffffffffffffffffffffffffffff1681526020019081526020016000206040518060a0016040528083815260200185858080601f016020809104026020016040519081016040528093929190818152602001838380828437600081840152601f19601f8201169050808301925050505050505081526020016000151581526020014281526020014281525090806001815401808255809150506001900390600052602060002090600502016000909190919091506000820151816000015560208201518160010190816102fa919061128b565b5060408201518160020160006101000a81548160ff021916908315150217905550606082015181600301556080820151816004015550503373ffffffffffffffffffffffffffffffffffffffff167f82e72578742f8dcfee5f2dbc5864ee537b7be2dae9a49e67a0b76fe2f0bfca2e8285854260405161037d9493929190611399565b60405180910390a2505050565b60008060003373ffffffffffffffffffffffffffffffffffffffff1673ffffffffffffffffffffffffffffffffffffffff168152602001908152602001600020905080805490508210610412576040517f08c379a000000000000000000000000000000000000000000000000000000000815260040161040990611425565b60405180910390fd5b6000600182805490506104259190611445565b90508083146104fd5781818154811061044157610440611479565b5b906000526020600020906005020182848154811061046257610461611479565b5b9060005260206000209060050201600082015481600001556001820181600101908161048e91906114be565b506002820160009054906101000a900460ff168160020160006101000a81548160ff0219169083151502179055506003820154816003015560048201548160040155905050828284815481106104e7576104e6611479565b5b9060005260206000209060050201600001819055505b8180548061050e5761050d6115a6565b5b600190038181906000526020600020906005020160008082016000905560018201600061053b9190610b31565b6002820160006101000a81549060ff021916905560038201600090556004820160009055505090553373ffffffffffffffffffffffffffffffffffffffff167f02bbd76d6e9e851bec7ac70df88076a8dfd56e0d8614144a169e61f062e7798884426040516105ab9291906115d5565b60405180910390a2505050565b60008060003373ffffffffffffffffffffffffffffffffffffffff1673ffffffffffffffffffffffffffffffffffffffff168152602001908152602001600020905080805490508210610640576040517f08c379a000000000000000000000000000000000000000000000000000000000815260040161063790611425565b60405180910390fd5b600081838154811061065557610654611479565b5b906000526020600020906005020190508060020160009054906101000a900460ff16158160020160006101000a81548160ff0219169083151502179055504281600401819055503373ffffffffffffffffffffffffffffffffffffffff167f045bdd7f21a8ba39459099bd505b31080e8ec5ff1e4f4b3f6626b9b5d388b976848360020160009054906101000a900460ff16426040516106f79392919061160d565b60405180910390a2505050565b60606000803373ffffffffffffffffffffffffffffffffffffffff1673ffffffffffffffffffffffffffffffffffffffff168152602001908152602001600020805480602002602001604051908101604052809291908181526020016000905b8282101561086157838290600052602060002090600502016040518060a0016040529081600082015481526020016001820180546107a1906110ae565b80601f01602080910402602001604051908101604052809291908181526020018280546107cd906110ae565b801561081a5780601f106107ef5761010080835404028352916020019161081a565b820191906000526020600020905b8154815290600101906020018083116107fd57829003601f168201915b505050505081526020016002820160009054906101000a900460ff161515151581526020016003820154815260200160048201548152505081526020019060010190610764565b50505050905090565b60008060003373ffffffffffffffffffffffffffffffffffffffff1673ffffffffffffffffffffffffffffffffffffffff16815260200190815260200160002080549050905090565b606060008060003373ffffffffffffffffffffffffffffffffffffffff1673ffffffffffffffffffffffffffffffffffffffff168152602001908152602001600020905060008180549050905080851061096557600067ffffffffffffffff81111561092257610921611050565b5b60405190808252806020026020018201604052801561095b57816020015b610948610b71565b8152602001906001900390816109405790505b5092505050610b2b565b600084866109739190611644565b905081811115610981578190505b6000868261098f9190611445565b90508067ffffffffffffffff8111156109ab576109aa611050565b5b6040519080825280602002602001820160405280156109e457816020015b6109d1610b71565b8152602001906001900390816109c95790505b50945060005b81811015610b25578481896109ff9190611644565b81548110610a1057610a0f611479565b5b90600052602060002090600502016040518060a001604052908160008201548152602001600182018054610a43906110ae565b80601f0160208091040260200160405190810160405280929190818152602001828054610a6f906110ae565b8015610abc5780601f10610a9157610100808354040283529160200191610abc565b820191906000526020600020905b815481529060010190602001808311610a9f57829003601f168201915b505050505081526020016002820160009054906101000a900460ff1615151515815260200160038201548152602001600482015481525050868281518110610b0757610b06611479565b5b60200260200101819052508080610b1d90611008565b9150506109ea565b50505050505b92915050565b508054610b3d906110ae565b6000825580601f10610b4f5750610b6e565b601f016020900490600052602060002090810190610b6d9190610ba2565b5b50565b6040518060a00160405280600081526020016060815260200160001515815260200160008152602001600081525090565b5b80821115610bbb576000816000905550600101610ba3565b5090565b600080fd5b600080fd5b600080fd5b600080fd5b600080fd5b60008083601f840112610bee57610bed610bc9565b5b8235905067ffffffffffffffff811115610c0b57610c0a610bce565b5b602083019150836001820283011115610c2757610c26610bd3565b5b9250929050565b60008060208385031215610c4557610c44610bbf565b5b600083013567ffffffffffffffff811115610c6357610c62610bc4565b5b610c6f85828601610bd8565b92509250509250929050565b6000819050919050565b610c8e81610c7b565b8114610c9957600080fd5b50565b600081359050610cab81610c85565b92915050565b600060208284031215610cc757610cc6610bbf565b5b6000610cd584828501610c9c565b91505092915050565b600081519050919050565b600082825260208201905092915050565b6000819050602082019050919050565b610d1381610c7b565b82525050565b600081519050919050565b600082825260208201905092915050565b60005b83811015610d53578082015181840152602081019050610d38565b60008484015250505050565b6000601f19601f8301169050919050565b6000610d7b82610d19565b610d858185610d24565b9350610d95818560208601610d35565b610d9e81610d5f565b840191505092915050565b60008115159050919050565b610dbe81610da9565b82525050565b600060a083016000830151610ddc6000860182610d0a565b5060208301518482036020860152610df48282610d70565b9150506040830151610e096040860182610db5565b506060830151610e1c6060860182610d0a565b506080830151610e2f6080860182610d0a565b508091505092915050565b6000610e468383610dc4565b905092915050565b6000602082019050919050565b6000610e6682610cde565b610e708185610ce9565b935083602082028501610e8285610cfa565b8060005b85811015610ebe5784840389528151610e9f8582610e3a565b9450610eaa83610e4e565b925060208a01995050600181019050610e86565b50829750879550505050505092915050565b60006020820190508181036000830152610eea8184610e5b565b905092915050565b610efb81610c7b565b82525050565b6000602082019050610f166000830184610ef2565b92915050565b60008060408385031215610f3357610f32610bbf565b5b6000610f4185828601610c9c565b9250506020610f5285828601610c9c565b9150509250929050565b600082825260208201905092915050565b7f5461736b20636f6e74656e742063616e6e6f7420626520656d70747900000000600082015250565b6000610fa3601c83610f5c565b9150610fae82610f6d565b602082019050919050565b60006020820190508181036000830152610fd281610f96565b9050919050565b7f4e487b7100000000000000000000000000000000000000000000000000000000600052601160045260246000fd5b600061101382610c7b565b91507fffffffffffffffffffffffffffffffffffffffffffffffffffffffffffffffff820361104557611044610fd9565b5b600182019050919050565b7f4e487b7100000000000000000000000000000000000000000000000000000000600052604160045260246000fd5b7f4e487b7100000000000000000000000000000000000000000000000000000000600052602260045260246000fd5b600060028204905060018216806110c657607f821691505b6020821081036110d9576110d861107f565b5b50919050565b60008190508160005260206000209050919050565b60006020601f8301049050919050565b600082821b905092915050565b6000600883026111417fffffffffffffffffffffffffffffffffffffffffffffffffffffffffffffffff82611104565b61114b8683611104565b95508019841693508086168417925050509392505050565b6000819050919050565b600061118861118361117e84610c7b565b611163565b610c7b565b9050919050565b6000819050919050565b6111a28361116d565b6111b66111ae8261118f565b848454611111565b825550505050565b600090565b6111cb6111be565b6111d6818484611199565b505050565b5b818110156111fa576111ef6000826111c3565b6001810190506111dc565b5050565b601f82111561123f57611210816110df565b611219846110f4565b81016020851015611228578190505b61123c611234856110f4565b8301826111db565b50505b505050565b600082821c905092915050565b600061126260001984600802611244565b1980831691505092915050565b600061127b8383611251565b9150826002028217905092915050565b61129482610d19565b67ffffffffffffffff8111156112ad576112ac611050565b5b6112b782546110ae565b6112c28282856111fe565b600060209050601f8311600181146112f557600084156112e3578287015190505b6112ed858261126f565b865550611355565b601f198416611303866110df565b60005b8281101561132b57848901518255600182019150602085019450602081019050611306565b868310156113485784890151611344601f891682611251565b8355505b6001600288020188555050505b505050505050565b82818337600083830152505050565b60006113788385610f5c565b935061138583858461135d565b61138e83610d5f565b840190509392505050565b60006060820190506113ae6000830187610ef2565b81810360208301526113c181858761136c565b90506113d06040830184610ef2565b95945050505050565b7f5461736b20646f6573206e6f7420657869737400000000000000000000000000600082015250565b600061140f601383610f5c565b915061141a826113d9565b602082019050919050565b6000602082019050818103600083015261143e81611402565b9050919050565b600061145082610c7b565b915061145b83610c7b565b925082820390508181111561147357611472610fd9565b5b92915050565b7f4e487b7100000000000000000000000000000000000000000000000000000000600052603260045260246000fd5b6000815490506114b7816110ae565b9050919050565b8181036114cc5750506115a4565b6114d5826114a8565b67ffffffffffffffff8111156114ee576114ed611050565b5b6114f882546110ae565b6115038282856111fe565b6000601f8311600181146115325760008415611520578287015490505b61152a858261126f565b86555061159d565b601f198416611540876110df565b965061154b866110df565b60005b828110156115735784890154825560018201915060018501945060208101905061154e565b86831015611590578489015461158c601f891682611251565b8355505b6001600288020188555050505b5050505050505b565b7f4e487b7100000000000000000000000000000000000000000000000000000000600052603160045260246000fd5b60006040820190506115ea6000830185610ef2565b6115f76020830184610ef2565b9392505050565b61160781610da9565b82525050565b60006060820190506116226000830186610ef2565b61162f60208301856115fe565b61163c6040830184610ef2565b949350505050565b600061164f82610c7b565b915061165a83610c7b565b925082820190508082111561167257611671610fd9565b5b9291505056fea2646970667358221220842f70fdc1b1daa4786b4fa9c39621ee4bf762f233930c9461f18ef21f7806fa64736f6c63430008140033",
  "linkReferences": {},
  "deployedLinkReferences": {}
}